:020000040002F8
:10600000C8530020C1630200C9630200CB630200D1
:10601000CD630200CF630200D163020000000000E4
:10602000000000000000000000000000D363020038
:10603000D563020000000000D7630200D9630200AC
:10604000A5670200DB630200956A0200DB630200C1
:10605000DB630200DB6302008D650200DB6302008C
:10606000DB630200DB630200DB630200DB63020030
:10607000DB630200DB630200DB630200DB63020020
:10608000DB6302002D680200DB630200DB630200B9
:10609000B1680200DB630200B5680200DB63020046
:1060A000DB630200DB630200DB630200DB630200F0
:1060B000FD670200DB63020000000000000000003A
:1060C000DB6302000D6802001D680200DB63020052
:1060D000DB630200DB630200DB630200DB630200C0
:1060E000DB630200DB630200DB63020000000000F0
:1060F00000000000DB63020000000000DB63020020
:10610000000000000000000000000000000000008F
:10611000000000000000000000000000000000007F
:10612000000000000000000000000000000000006F
:10613000000000000000000000000000000000005F
:10614000000000000000000000000000000000004F
:10615000000000000000000000000000000000003F
:10616000000000000000000000000000000000002F
:10617000000000000000000000000000000000001F
:10618000000000000000000000000000000000000F
:1061900000000000000000000000000000000000FF
:1061A00000000000000000000000000000000000EF
:1061B00000000000000000000000000000000000DF
:1061C00000000000000000000000000000000000CF
:1061D00000000000000000000000000000000000BF
:1061E00000000000000000000000000000000000AF
:1061F000000000000000000000000000000000009F
:10620000DFF80CD000F084F900480047E99B020059
:10621000C853002030B450E8012F93B2C4892344FE
:106220008489A34228BF1B1B0489A34202BFBFF37A
:106230002F8F002007E0C3EA020340E80134002C5E
:10624000E9D14FF001000A6030BC704750E8012FDF
:10625000C2EA024240E801210029F7D1704730B478
:1062600050E8022F1FFAA2F3C488A34202BFBFF373
:106270002F8F00200DE0C48923448489A34228BFC6
:106280001B1BC2EA034340E80234002CE8D14FF064
:1062900001000A6030BC704750E8022FC2EA224277
:1062A00040E802210029F7D17047034653E8022F46
:1062B000D988B2EB324F4FF0000017BF92B241EADB
:1062C000014142EA014104E05A68B2EB324F08BF93
:1062D000012043E80212002AE8D1704730B4044696
:1062E00054E8000F0D4644E80053002BF8D1156028
:1062F00030BC704730B4044654E8000F40EA010552
:1063000044E80053002BF7D1156030BC704730B41F
:10631000044654E8000F00EA010544E80053002B4E
:10632000F7D1156030BC704730B4044654E8000F14
:1063300080EA010544E80053002BF7D1156030BC1A
:10634000704730B4044654E8000F00EB010544E800
:106350000053002BF7D1156030BC704730B40446B1
:1063600054E8000FA0EB010544E80053002BF7D1DF
:10637000156030BC704770B404464FF0000054E81C
:10638000006F0D68AE4207BF44E80023012044E8D7
:1063900000630E60002B1CBF0020F0E770BC70474C
:1063A00030B4044654E8000F88422CBF451A054615
:1063B00044E80053002BF5D1156030BC7047000055
:1063C0000648804706480047FEE7FEE7FEE7FEE78F
:1063D000FEE7FEE7FEE7FEE7FEE7FEE7B96802003C
:1063E000016202002DE9F05F0546002092469B46BF
:1063F00088460646814640241BE0284641464746DB
:10640000224600F074F853465A46C01A914110D300
:1064100011461846224600F016F82D1A67EB0108BF
:106420004F4622460120002100F00DF817EB00092D
:106430004E41201EA4F10104DFDC484631462A46C5
:106440004346BDE8F09F202A04DB203A00FA02F11F
:10645000002070479140C2F1200320FA03F3194352
:10646000904070470048704750E2020040EA010344
:106470009B0703D009E008C9121F08C0042AFAD2FA
:1064800003E011F8013B00F8013B521EF9D27047BE
:10649000D2B201E000F8012B491EFBD27047002266
:1064A000F6E710B513460A4604461946FFF7F0FF13
:1064B000204610BD421C10F8011B0029FBD1801A98
:1064C000704730B504460020034600E05B1C934251
:1064D00003D2E05CCD5C401BF8D030BD034611F820
:1064E000012B00F8012B002AF9D118467047202A09
:1064F00004DB203A21FA02F00021704721FA02F36E
:10650000D040C2F120029140084319467047000074
:10651000064C074D06E0E06840F0010394E80700F0
:1065200098471034AC42F6D3FFF76EFED8E902006C
:10653000F8E9020070B58C1810F8015B15F007033C
:1065400001D110F8013B2A1106D110F8012B03E00C
:1065500010F8016B01F8016B5B1EF9D12B0705D414
:106560000023521E0DD401F8013BFAE710F8013B5D
:10657000CB1A921C03E013F8015B01F8015B521E79
:10658000F9D5A142D8D3002070BD00002DE9F04F0D
:1065900000268DB0DFF8A081B14604964FF48075D7
:1065A000012437460596284604F0C6FA38B1D8F8D3
:1065B0000403204203D0284604F0B4FA26432D1DDC
:1065C00064007F1CADB2082FEDD34FF4BE7420469B
:1065D00004F0B2FA48B1204604F0A4FA46F00046AE
:1065E00004AA0221002004F087FA544C16F0FF0F91
:1065F00015D00127002537420DD008EB8501D1F8D1
:106600001005D1F81015C0F3052054F82520C1F36A
:10661000014102B190477F006D1C082DEBD3002E85
:106620007EDA0020CDF82890411E0DF1100B07AA4C
:10663000CDF82C9042F82010401C91460228F9D346
:1066400000252E46A11911F8607F91F9000027F06E
:10665000C008401C40D007A9404603F03AFD40B3B3
:106660004FEA971A404601F0D1FD54F820701FB14F
:10667000BAF1030F03D006E0BAF1030F2CD10AA937
:10668000404603F02EFD02A8CDF8088004F0FAF988
:10669000029900EB8100D0F8000704A9C0F3014083
:1066A0000290404603F015FD0028029802D002280F
:1066B00002D011E003280FD1BAF1030F08D10298DC
:1066C000022833D00221404604F0B6F96D1CEDB229
:1066D00017B151464046B847761C042EB2D3002D60
:1066E00021D001AA0221002004F006FA00205A4617
:1066F0000DF1040152F8206051F82030B34217D058
:1067000000200AAE4FEA090351F8207042F82070C9
:1067100056F8207043F82070401C0228F4D300E0A3
:1067200001E0002D8CD10DB0BDE8F08F0321CAE748
:10673000401C0228DED3F6E700600040D02800208D
:1067400000F01F02012191404009800000F1E0208B
:10675000C0F88012704700F01F02012191404009EB
:10676000800000F1E020C0F80011704700F01F0227
:10677000012191404009800000F1E020C0F80012A2
:1067800070474907090E002806DA00F00F0000F1F3
:10679000E02080F8141D704700F1E02080F800141C
:1067A0007047000070B54FF48076304603F0B3FDBB
:1067B000114CB50560B1304603F0B4FD0120C5F8B9
:1067C0000803607920B901206071216800208847A2
:1067D0004FF48276304603F09EFD00280AD0304602
:1067E00003F0A0FD0220C5F808032168BDE8704051
:1067F0000120084770BD0000B42200200149024872
:1068000002F06DBF3C29002000C001400149024850
:1068100002F065BF442900200010024001490248EF
:1068200002F05DBF4C2900200020024007480021F3
:10683000C0F84011C0F84411C0F84811C0F84C111C
:10684000C0F80011C0F8041106F08CBF0010014020
:1068500000F026B970B50E46144900EB400001EB7C
:10686000C0051446E86A183520B101280FD0022867
:1068700005D113E0284600F047F9A04201D20024D8
:1068800011E022463146284600F076F90BE0284612
:1068900000F03AF9A042F4D20446F2E73146284625
:1068A00000F03DF90446204670BD00003C31002058
:1068B00006F0A6BE04F004BF30B54FF080500022B1
:1068C0008300D0F83011C3F80C21C3F81021624BBB
:1068D0001A60624B1B68624C2360604B1B1D1B6877
:1068E000241D23605D4B08331B68241D23605B4B14
:1068F0000C331B68241D2360584B10331B68241D68
:106900002360564B14331B68241D2360534B1833EC
:106910001B68534C20342360504B1C331B68241DD0
:1069200023604E4B20331B68241D23604B4B2433C4
:106930001B68241D2360494B28331B68241D2360DA
:10694000464B2C331B68241D2360444B30331B689B
:10695000434C40342360414B34331B68241D236077
:106960003E4B38331B68241D23603C4B3C331B6873
:10697000241D2360394B40331B68241D23600124F0
:10698000082902D1D0F8343113B1082904D006E027
:10699000354B3449196005E0D0F8343113B108297A
:1069A00004D006E0314BFB21196005E0D0F834310A
:1069B00013B1082908D00EE090F858322C4801682D
:1069C00063F30301016002E0D0F834311BB92949B7
:1069D0004FF40070086028480168C90702D06FF0C2
:1069E000010101602548016841F470010160BFF3B5
:1069F0004F8FBFF36F8F4FF01021D1F800020028A6
:106A000003DBD1F80402002822DA1D4B1C601D486C
:106A10000468002CFCD01224C1F800420568002D47
:106A2000FCD0C1F8044201680029FCD01A6001685A
:106A30000029FCD0BFF34F8F10487C380168124A00
:106A400001F4E06111430160BFF34F8F00BFFDE728
:106A50000F490E48086030BD38050040040400109E
:106A600020C50040488103008C56004018F50040C6
:106A7000E40E0040409602400004004088ED00E033
:106A800004E5014000E401400400FA050090D00351
:106A9000C82300200148006800470000BC220020F5
:106AA00010B5124C02202061606111A0A06104F1B8
:106AB0007800E0614FF4007020620020A062606204
:106AC0000BA1A164E06204F51E71E1641021A065D0
:106AD000C4E91410E06509A1E01DFFF7FFFC08A15F
:106AE0002046FFF7FBFC2020A07110BD3C310020A8
:106AF0005465726D696E616C000000005254540060
:106B000053454747455200000269C1688A4203D88D
:106B10008068401A104400E0501A401E70472DE96A
:106B2000F047C4681746894606464FF000083069AA
:106B3000A04201D9051B02E0B168201A0D1AB06805
:106B40006D1E001BA84200D80546BD4200D33D463D
:106B500070682A4620444946FFF788FCB0687F1BCE
:106B60002C44A844A944A04200D10024F460002F82
:106B7000DDD14046BDE8F0872DE9F0410446884666
:106B8000D4E90207C51BE168606816460844B542AF
:106B900006D94146FFF76AFCB819E060BDE8F0810C
:106BA0002A464146FFF762FC761B08EB0501324698
:106BB0006068FFF75BFCE660F0E702E008C8121FC0
:106BC00008C1002AFAD170477047002001E001C1D6
:106BD000121F002AFBD170470121202803DA8140CF
:106BE0000548014003E0402802DA2038814009B11D
:106BF0000120704700207047FC06FFBD10B560B152
:106C000059B102780B785208B2EB530F05D1062226
:106C1000401C491CFFF755FC08B1002010BD0120A5
:106C200010BD800701D00020704701207047C36865
:106C30008B4206D811440069491E814201D80120C7
:106C400070470020704710B50F220021012001F08D
:106C5000F1F808B1072818D110220021022001F014
:106C6000E9F808B1072810D100210A22084601F0EE
:106C7000E1F808B1072808D111220221032001F010
:106C8000D9F808B1072800D1002010BD10B50321A4
:106C9000044800F0BDFB002803D0BDE8104000F020
:106CA000C1B810BD3824002070B58CB015460E4612
:106CB00000236C46C3F10F01415CE1545B1C102BB7
:106CC000F8D30D2104F11000FFF7E9FB0020C0F11B
:106CD0000F02315C2244401C11740328F7D368462C
:106CE00046DF0020C0F10F01214491F82010295403
:106CF000401C0328F6D30CB070BD022000F056BF34
:106D00000149097900F0D8BC9422002070B5002414
:106D1000064D06E06868012110F8340004F09EFD7D
:106D2000641C28788442F5D3002070BDC82200205E
:106D3000F8B515460C460646052A01D20720F8BDCF
:106D400004F084FE18B904F047FE0028F7D1124978
:106D500000224E600C708D60C1E90422C1E9062258
:106D60000E4D0DE006EBC4002968009181788DF886
:106D7000011000780A4A694604F0BCFD0028DED103
:106D8000641EE4B2EED2BDE8F84004480021054A92
:106D9000001D00F053B80000C822002004DF0200EC
:106DA000FD8F0200E586020072B604F0A9F900BF6B
:106DB00003F08CFF0028FBD1104C0121208801EB4F
:106DC00000400FA104F0E6F810480068C00700D0AA
:106DD00000BE2088022101EB00400DA104F0DAF88A
:106DE000BFF34F8F0948E43801680D4A01F4E061B0
:106DF00011430160BFF34F8F00BFFDE71424002053
:106E0000466174616C206572726F7200F0ED00E093
:106E100053797374656D20726573657400000000AA
:106E20000400FA050EB500210091CDE901106A4673
:106E300044F20100FFF7B8FF0EBD0000074B9B783E
:106E400023B12AB120B10068037C1BB10820704730
:106E50000720704741744261002070477429002068
:106E600070B505F0F9FE104800240B210470447041
:106E70000E4D817014206C602C706C70FFF760FCFC
:106E800007211420FFF77DFC1420FFF764FC08485D
:106E9000046007211120FFF774FC0548001F0068FB
:106EA000A860002070BD000074290020E8220020A6
:106EB000081501402DE9FC47DFF8789099F8023079
:106EC00073B368B3052902D20720BDE8FC87436984
:106ED00033B3437C012B25D0002704460025884688
:106EE00016468DF80050684600F038F801A806F004
:106EF00001FDC8B1012101700F4944600968C0E972
:106F00000218C0E904769DF8040089F801009DF894
:106F1000000000F047F81420FFF728FC2846D4E7CB
:106F20000820D2E70F46D8E704259DF8000000F0BE
:106F300039F8F3E7742900200415014006498978DF
:106F400039B130B1416921B100210174022106F04B
:106F5000E5BB0820704700007429002030B5EFF32E
:106F6000108172B60D4A9468012324B10370002980
:106F700000D162B630BD93604FF0E023D3F880516A
:106F8000074C25401560C3F88041D3F88441546014
:106F90005A17C3F8842100220270E8E7802A0020F3
:106FA000FC06FFBD0B498A68002A11D000280FD1CA
:106FB000EFF3108072B60B684FF0E022C2F8003198
:106FC0004B68C2F8043100228A60002800D162B602
:106FD00070470000802A002002F062BD2DE9F047D2
:106FE000074600888EB0804602F064FA8246044666
:106FF0002D4800252A460178404600F075FB787937
:10700000400734D501254FF6FF7603AB2A4607210A
:10701000504604F061FF010004D0404605F0A8FF8F
:1070200000252BE0B1463146049802F0B7F9064638
:1070300048450FD004460146404602F025FA404636
:10704000FFF75EFE30B9404605F064FF4046FFF7AB
:1070500057FE48B122460721504604F0B3FF010015
:1070600003D0404605F084FF00254E4506D040463B
:1070700005F0E0F810B1504602F008FA02208DF851
:107080001800ADF81A807879400701D5012000E09A
:1070900002208DF820008DF8215006A801F070FC28
:1070A0000EB0BDE8F0870000942200202DE9FC47D7
:1070B000002517880646158090F82D00144689464D
:1070C00030B13A462146484600F038FB051E09D14A
:1070D000B0784FF00C0A18B32088C846001DB8429B
:1070E00002D95046BDE8FC87684679DF0028F9D10F
:1070F0002088032108F8001020881921401C80B244
:10710000208008F800102088401C80B2208000EB0E
:107110000801BDF8000006F05FFB218808442080CC
:10712000F0780222C8B1218896F9033001F1030CEE
:107130004846BC45D5D8425421884FF0010C491C23
:1071400089B2218000F801C02188491C89B22180C0
:1071500009F801302088401C20807068B8B121886F
:1071600090F9003001F1030C4846BC45B9D84254AF
:1071700021880A22491C89B2218042542188491C55
:1071800089B2218009F801302088401C2080308994
:1071900050B1CDE900474B460622022106F1080016
:1071A00006F0C0FB051E9DD1308A50B1CDE90047E5
:1071B0004B460722032106F1100006F0B3FB051E23
:1071C00090D1308B50B1CDE900474B4615221421A8
:1071D00006F1180006F0A6FB051E83D1306A30B117
:1071E0003B462246494601F015F9051EDBD1706A7F
:1071F00030B13B462246494602F07EFD051ED2D103
:1072000096F82C0038B13B4622464946304605F0F8
:107210005DFF051EC7D1307838B13B46224649464E
:10722000304602F0EFFD051EBDD128465AE718B5DD
:1072300004460020ADF8000013466A46204600F0E0
:1072400006F8002802D0BDF80000204418BD70B533
:1072500088B182B10024158803E0065D641C3444C3
:10726000A4B2A54203D8061976789E4201D08C427A
:10727000F3D38C4201D3002070BDA11C1180005DAE
:10728000401E80B270BD80F8301070472DE9F0418B
:107290000E00044606D02CB196F87A00002501288D
:1072A00003D006E00E20BDE8F08196F89800012892
:1072B00021D04FF00108A5702C2206F17801201D85
:1072C000FFF7D4F884F83050D6F8A4006063D6F8FD
:1072D000A800A0634FF6FF70A4F8A80004F1940082
:1072E000C4F8A400C4F8AA50A4F8AE5084F8B05072
:1072F000207810B104E00720D5E7FF2084F854007F
:1073000004F155011F27C4F89410A4F8987004F1F3
:1073100098023046FFF7CAFE0028C4D116F13C0F90
:107320000ED004F17401C4F89C10A4F8A07004F10C
:10733000A00206F13C00FFF7B9FE0028B3D103E03C
:10734000C4F89C50A4F8A05084F85180208BA4F875
:10735000480084F83C80256484F85050606960647B
:10736000464604F13C02002104F1540072DF00287B
:1073700099D1267097E710B50288102A1BD0112AE0
:1073800020D0262A1DD1007A0C46012801D00228DF
:1073900017D1A0780521401CB0FBF1F201FB1201CE
:1073A000204600F035F800280BD0A16B002908D04A
:1073B000BDE810400847C27B012A02D18088A1F8AD
:1073C000A80010BD0C46002184F8B2108088B4F8E3
:1073D000A8108842F5D120790028F2D10121DFE7F9
:1073E00010B50C46022801D0032810D1607800287F
:1073F0000DD000206070A178204600F009F8002828
:1074000005D0A16B002902D0BDE81040084710BD8F
:107410002DE9F05F044600780F4638B1A7700020D0
:1074200003F058F9012620B1667007E10820BDE895
:10743000F09F0025C4F8AA50A4F8AE5084F8B050CC
:10744000A07910B1A078012806D0E07968B1A078C1
:10745000012801D0022808D1616B21B184F8B16004
:107460000820884701E084F8B15004F1AB01002006
:107470000A5C0AB1304603E0401C0628F8D300201D
:107480004FF002084FF0030B012F06D0022F0CD053
:10749000032F0FD0042F15D110E0A17929B194F852
:1074A000241011B908B130460DE0E17911B108B1ED
:1074B000404608E0207A08B1584604E0607A08B1F6
:1074C000042000E02846A070616B41B1032801D080
:1074D000042804D1607910B194F8B200A0B184F806
:1074E000B35004F13C0018210746FEF7D8FF04F121
:1074F0002C0084F83C60814604F07EFF58B194F87B
:107500002C0084F8510008E084F8B45084F8B3608B
:1075100007208847E5E784F8516094F8240050B1CB
:10752000484604F069FF20B194F8280084F852001E
:1075300001E084F8526084F85050A27804F1AA0166
:1075400004F194094FF0060A052A60D2DFE802F040
:1075500078030F223F0084F83160C4F8A450C4E9D6
:10756000101584F83C808020A4F8480051E084F88D
:10757000318094F82420384612B10722027001E0CD
:1075800080F800B0228A8281C4F8A4504160E1688A
:10759000B9603EE06069B860208BB88194F824003F
:1075A0003D4610B184F83CA001E084F83C602046E0
:1075B00006F07CF940B185F814800421204601F0E2
:1075C000C7FA20BB05211EE084F831B01DE0E06958
:1075D000B860208CB88194F824003D4610B184F83E
:1075E0003CA001E084F83C60204606F05FF948B119
:1075F00085F814800421204601F0AAFA38B984F8ED
:1076000031A002E0042184F83110C4F8A490A078DD
:1076100078B13A4604F15400D4F8A41072DF00287F
:107620007FF405AF94F8301094F8540073DF00280D
:10763000F6D1616B11B194F8310088470020F6E66D
:1076400084F83150F5E7000010B5044600F06CF8FE
:10765000002805D02146BDE81040024802F0A5BC34
:1076600010BD0000F825002070B515460E460446F2
:1076700006F028F9002809D0054800EB840080694D
:107680002A463146BDE8704001F0A0BA70BD000046
:10769000E825002070B50546002400F045F838B113
:1076A0002946044802F081FC08B1022400E00124CC
:1076B000204670BDF425002070B505460C460846EE
:1076C00006F000F960B1284600F02EF840B10548F8
:1076D000294600EB8400BDE87040183002F065BC1C
:1076E000002070BDE825002070B5054614460E4602
:1076F000084606F0E7F8002812D0284600F014F8F3
:1077000000280DD00748294600EB860018301CB130
:10771000BDE8704002F054BCBDE8704002F03ABCD5
:1077200070BD0000E8250020142801D30020704718
:107730000146014802F039BCEC2500207CB5054625
:1077400008880C460930904201D90C207CBD68465F
:107750006DDF0028FAD121880820685420881B2179
:10776000401C80B2208029542088401C80B2208098
:107770002844DDF801100160BDF8051081802088E3
:10778000801D80B220809DF80010490800D00121A2
:1077900029542088401C208000207CBDF0B500F1D9
:1077A0000804008887B01D2862D1207800075BD4C8
:1077B000E0791C2858D1207AED2855D1A069C079EC
:1077C00001281ED12B4D04AB95E8070083E8070084
:1077D000002204A9284804F043F908B1FFF722FB6E
:1077E00025480C351038017841F00101017095E809
:1077F0000F008DE80F000123022269461E4804F0A5
:107800009BF91E4D03271EA1288807EB004003F0BB
:10781000C1FB28881DA107EB004003F0BBFB2888B3
:107820000526A28B06EB0040A16903F05FFB2888C8
:1078300016A107EB004003F0ADFB2888012206EB00
:107840000040E11D03F052FB2888012206EB0040B6
:1078500004F1080103F04AFB2888A16906EB004007
:107860000122C91D03F042FB0349083100208ADFD1
:1078700007B0F0BD94DD0200202200201424002077
:1078800070686F6E65646174610000000D0A00002D
:1078900010B51A4C0188606810290ED011292BD11F
:1078A000401E606028D1FFF7CEF9002824D021685F
:1078B000002921D0BDE810400847D0B9002101229D
:1078C000084600F0B7FA08B107280FD101210722B6
:1078D000084600F0AFFA08B1072807D104220121B9
:1078E000022000F0A7FA20B1072802D0216801B1D8
:1078F00088476068401C606010BD00004C2200207A
:107900002DE9F04701883B4E40F2F3194FF6FF7521
:1079100010291BD011293ED0122954D0502946D10C
:10792000C188F289841D914241D1618902293ED1E9
:107930008688304601F050FE050038D004F10C0076
:1079400000F0F2F8A8B3294630464EE0C17B8788A4
:10795000044601292BD1A846284601F03DFE05002A
:1079600017D02F8000202872234843464A460168DA
:10797000C5F80A104068C5F80E0004F1100105F1C1
:107980000A0001F0FAFE6872F08900280FD129463A
:107990002AE0042013E0808801F01EFE040006D0D7
:1079A0006068FFF7CBFA08B105F0C6FA2580BDE89C
:1079B000F087FFE76868FFF7C1FA0028F7D0BDE855
:1079C000F04705F0B9BA87880646384601F004FE4C
:1079D0000400ECD02B464A4606F1080104F10A00E7
:1079E00001F0CBFE607221463846BDE8F04700F05A
:1079F00055BD0000CC250020542200202DE9F04F79
:107A00000746858802883D48012197B08346102AA1
:107A100009D0112A49D01A2A6CD1387AB1EB101F3B
:107A200045D2012244E0354C083CA068C0430B908D
:107A300061680BA802F0DAFA0B990CA800F0CBFCF5
:107A40002C220CA96846FEF711FD0026E946A04647
:107A500010E000BF09EB46005FF00004B0F804A09E
:107A600008EB84005146001D02F094FA641C1D2CA2
:107A7000F6D3761C0098B042ECD8142D05D317B07D
:107A80000420BDE8F04FFFF7CDB92946584602F073
:107A900097FA294608F1040002F092FAF87B0128CF
:107AA00028D016482946001D15E029461AE0002274
:107AB0000221B1EB101F01D2012600E000260F4980
:107AC000083901F11000041D294682B102F078FA4C
:107AD00036B12946204617B0BDE8F04F02F070BA23
:107AE0002946204617B0BDE8F04F02F053BA02F025
:107AF00051FAF5E717B0BDE8F08F0000F02500203F
:107B000010B504460748007800280AD0204601F046
:107B1000CBFB204605F01EFB2046BDE8104001F0DF
:107B200097B910BD84220020007800F00100704752
:107B3000084908B5085C0090684602F095FFD0F847
:107B400010050099C84010F0010000D0012080F01D
:107B5000010008BDB4DD02002DE9FC410646C00766
:107B60004FF000050ED0104F00240122385D009523
:107B700000231146019502F02DFF641C042CF4D360
:107B800000F04EF8B0070DD5074E0024361D002238
:107B9000305D032300951146019502F01BFF641C24
:107BA000042CF4D3BDE8FC81B0DD0200094908B51E
:107BB000085C0090684602F057FFD0F80425009B4F
:107BC0000121994021EA0203C0F808351140C0F8AC
:107BD0000C1508BDB0DD02000249085C012102F06D
:107BE00078BF0000B0DD02000249085C002102F00D
:107BF00070BF0000B0DD0200084908B5085C0090C5
:107C0000684602F031FFD0F804050099C84010F032
:107C1000010000D0012080F0010008BDB0DD0200AD
:107C200010B500242046FFF7D7FF641C042CF9D3BD
:107C300010BD10B500242046FFF7D6FF641C042CAD
:107C4000F9D310BD10B50246064B4FF0FF300021AE
:107C50005C5C944201D1084610BD491C0429F7D34D
:107C600010BD0000B4DD020070B5094E0C004FF0ED
:107C70000005306005D0012000F054F808B1022062
:107C80002070706810B9FEF7DEFF0546284670BD0B
:107C90004C2200202DE9F0470D468146FFF7D2FF28
:107CA0000446042836D2DFF874801B481C4EA8F125
:107CB0000C0725B3012D0ED0022D2BD104EB44006F
:107CC00030444578002D25D0B968002922D02846B7
:107CD000BDE8F047084704EB4401755C0E44717839
:107CE00049B10E4A4FF40041093A8068FFF7E2F8C3
:107CF00008B987F80390B17808F80410E2E78068C3
:107D0000FFF71CF904EB4401314418F804008D78A6
:107D1000A842D7D0BDE8F087B8DD02004822002095
:107D20006C250020042801D2FFF702BF0020704715
:107D30002DE9F04F01463C48DFF8F080AFB0012557
:107D400090F854002BAE40F604074FF003094FF4AF
:107D5000967A44F2506B08F101040A2914D00F29D5
:107D600029D0102934D011295BD174DFD8F80C0048
:107D70004FF0AC01401CC8F80C00C007684634D076
:107D8000FEF78DFBA57034E074DFD8F808004FF0E3
:107D9000AC01401CC8F80800C007684603D0FEF7D5
:107DA0007EFB257025E0FEF77AFB0020207020E0A6
:107DB000FFF738F82FE074DF6078401CC0B26070C5
:107DC0000A2800D96570AC216846FEF768FB10E010
:107DD00074DFAC216846FEF762FB6078401E10F04D
:107DE000FF00607005D1657003E0FEF758FB0020CE
:107DF000A070ADF8B0908DF87C500D482D94099688
:107E00002990ADF8AC7069460748CDE922ABFFF781
:107E10003DFA0028CCD101210348FFF734FAFEF7E0
:107E200035FF2FB0BDE8F08F38240020102200204D
:107E3000A9BB020070B50023042810D20D4D00EB41
:107E40004004012A02D101290CD00022094E00EB86
:107E50004000304461B1012906D0022906D0072331
:107E6000184670BD0E30C2B22A55F9E74270F7E7E6
:107E70008270F5E76C250020044A01460020127943
:107E8000D20702D0084600F04DB870473C220020CF
:107E900070B506461E480024C0E90161B00720D530
:107EA0000025012211462846FFF7C4FF6D1C044639
:107EB000042D02D2002CF4D013E094B940F2666293
:107EC00004211448FEF734FF04000AD1FEF71EFF18
:107ED000040006D10F48104A0021001FFEF7AEFF34
:107EE0000446F00712D00120FFF736FE74B90948A6
:107EF0000A4A00210C38FEF7A1FF040006D105480C
:107F0000074A01210838FEF799FF0446204670BD54
:107F10003C220020C4DD0200A18102001198020071
:107F2000FB6C02002DE9F05F6A4C05460026607884
:107F3000B34618B184F801B001F052FC664F4FF41B
:107F40007A694FF4C87A4FF00108182D62D2DFE841
:107F500005F0AC0C0C31404D62676B746B74BE7DE8
:107F60007D7D7D7DACAFB2B5BEBE0020FFF744FE87
:107F700000284FF0000008D0FFF72EFE022D02D19E
:107F80004FF4E16008E0484606E0FFF72DFE022DC1
:107F900001D1C82000E05046410CC0034FF4FA72F2
:107FA000801841F10001257052000023FEF71AFAF3
:107FB00001462AE00020FFF71FFE00284FF00000D6
:107FC00004D0FFF709FE4FF44870E5E7FFF70CFE19
:107FD000DFE70020FFF710FE00284FF0000002D07E
:107FE000FFF7FAFDCFE7FFF7FFFDD4E70020FFF72B
:107FF00003FE00284FF0000002D0FFF7EDFD01E086
:10800000FFF7F2FD257041F69A1100223868FEF75D
:1080100051FF064646E00020FFF7C8FD257008E046
:10802000002051E025703DE084F801800120FFF739
:10803000BDFD002240F6CD41E8E784F80180012033
:10804000FFF7B4FD00224FF48041DFE77868FEF7C8
:1080500075FF0646D5F1110000D02EB10220FFF7C2
:10806000BBFD84F802B01DE0012816D980B2C821FA
:108070004843C117C90341EA5041C0034FF4FA72A3
:10808000801841F1000152000023FEF7ABF90146D0
:1080900000227868FEF70EFF06460220FFF7A4FDD7
:1080A00084F802803046BDE8F09F01F099FBB9E703
:1080B00001F096FBB4E701F093FB04E001F090FBC4
:1080C0000020FFF791FD0120FFF78EFDAAE7FFF7E3
:1080D000B0FDA7E73C220020B8DD02002DE9F843FF
:1080E0000546861C00208DF8000090460F464FF094
:1080F00001096846FEF732FF1B4C20683860D4E95E
:108100000001401AA16804F21C47081A0EE0012180
:10811000384601F065FF01F019FD0146384601F0CF
:108120005FFFD4E90001401AA168081A401C86428A
:10813000EDD8B8F1000F03D0052065F3891002E0F7
:10814000062065F39F50A2682168114004EB81016D
:10815000C8602068304420609DF80000FEF722FFD0
:108160004846BDE8F8830000182D002030B482682E
:108170000468531C8360A154D0E901128A4202D3DF
:1081800030BC02F018B930BC70470000034803C887
:10819000814201D10120704700207047182D002036
:1081A00000780221FFF776BD05494FF0FF3208281D
:1081B00041F8202002D3084480F85820704700007E
:1081C000D0280020F0B54FF0FF3512B1002308266B
:1081D00001E008230C260C4C05E000BF54F8237086
:1081E0007F1C04D05B1CB342F8D32846F0BD261890
:1081F0005DB286F8305044F82310002AF5D1E1181A
:1082000081F85800F1E70000D02800200249084416
:1082100090F9300070470000D028002070B5044667
:108220004FF6FF750A462846AC4208D14FF48074D9
:108230002146104604F06EF9A04209D070BDFF2C13
:10824000FCD82146104604F058F908B1204670BD0C
:10825000284670BD70B5084C050009D0103421685F
:10826000002907D008682060496828468847F6E753
:108270000834F4E770BD0000BC280020054A012145
:1082800020B1012805D19170FFF7E4BF51700020A3
:10829000FAE77047BC2800202DE9F05F26484168C6
:1082A000F1B3DFF898B00E688146DBF800408768CC
:1082B0008078E11B21F07F45ED1CB0B9DFF88080AC
:1082C0004FF48030C8F84403C8F804031120FEF7C7
:1082D00037FA1120FEF73FFA4FF0010AC8F800A064
:1082E0002F2003F0B3FA89F802A0B54200D2354638
:1082F000124BE8193C3320F07F401860DBF8001087
:108300005A46091B21F07F41001B20F07F40C91C09
:1083100081420FD9106818602F2003F097FA00E00F
:1083200004E0BDE8F05F1120FEF720BABDE8F05F81
:1083300004F092BCBDE8F09FE82200200415014043
:10834000001001402DE9F04186B000240F46804620
:1083500001256E46385DFF2823D0C10920F080003A
:1083600046F82400049004A807D002F099FB049971
:1083700005FA01F1C0F8081506E002F091FB049936
:1083800005FA01F1C0F80C1556F82400049004A871
:1083900002F086FB049A032100EB8200C0F800176C
:1083A00003E04FF0FF3046F82400641CE4B2042CD4
:1083B000D0D3D8F800106B46002000BF01EB80023C
:1083C00053F82040C2F86045401CC0B20428F5D3E1
:1083D00006B0BDE8F08173B58CB006460020009071
:1083E0000D9880B100246D4621460DA801F0DDFDF9
:1083F00030B1009805EB400084800098401C00904C
:10840000641C142CF0D32C2269463046FEF72EF85B
:108410000EB070BD2DE9F04117880646B81D144610
:108420000D46984202D90C20BDE8F0813188072220
:1084300006290AD34FF4486C4FF6FF73614501D902
:10844000994202D17088062801D21046ECE76045B7
:1084500001D99842F9D1994203D0984201D0814282
:10846000F3D80520E85520881221401C80B22080D6
:1084700029542088401C80B220804119308805F0A2
:10848000ABF92188084480B220804119708805F03A
:10849000A3F92188084420800020C5E738B54A7A2E
:1084A0000F4B62B100220A725969002906D00122DD
:1084B0008DF80020ADF802006846884738BD0A7A7A
:1084C00062B19B684C68024619462046FEF7F2FCF2
:1084D0000028F3D0BDE8384004F02EBD5B68F1E71A
:1084E000CC250020F0B585B016460F4604461D4643
:1084F00014220B496846FDF7B9FF0A488DF8087049
:10850000ADF80240ADF80A608DF80C5001780022F9
:108510002046FFF7E9F8684600F032FA05B0F0BDF2
:10852000D0DE020094220020F0B587B0074600207C
:108530000490ADF810100590ADF812100190029063
:1085400001AA04A9384690DF060022D003F040F9C2
:10855000114C0346012520883A4605EB00400F499F
:1085600002F023FDBDF8042012B9BDF8060038B1B1
:108570002088BDF8063005EB004009A102F015FD8A
:10858000BDF808202AB12088154905EB004002F00B
:1085900005FD07B03046F0BDE023002054E20200A4
:1085A00054686520726571756573746564205458EC
:1085B0002F5258207061636B6574206C656E677410
:1085C0006820697320746F6F206C6F6E672062790A
:1085D0002025752F2575206F63746574732E000038
:1085E000A0E2020030B5044685B000211B4803F02C
:1085F00084FF00282FD00025204600F084FD68B1BC
:10860000112812D086281BD0A0F54051023903D082
:108610000146204604F098FC294607E005B02946AB
:108620002046BDE8304001F06FBA0121204601F03C
:108630006BFA05B00021BDE83040084803F091BF57
:10864000142207496846FDF711FFADF8024068465D
:1086500000F072F9E0E705B030BD00005D220020B7
:10866000F8DD02007FB50C4610B1012004B070BDEA
:108670002079002638B141F61D5501281BD002286B
:1086800026D00F20F2E70220207102960396E068C0
:108690000190694601A804F03DFA50B10298818822
:1086A000E18000882081BDF80010029804F0B0FA43
:1086B000DCE70A20DAE70A4B6A460021A01D04F035
:1086C000E5F938B1064918398E61CE610A28CDD155
:1086D0002846CBE702488188019804F099FAF5E72B
:1086E000282300202DE9F0470025DFF88C803CE0AE
:1086F0006068002100EBC506012032789146FDF745
:10870000A2FED4E9062300EA020701EA030C57EAB5
:108710000C0728D082438B434846C4E9062303F064
:1087200053F932788246914601200021FDF78BFEF5
:10873000D4E9042300EA020401EA03074A4650464A
:108740000021FDF780FE44404F403C430BD1707840
:10875000012801D0012100E00021726881EA0A01AC
:108760000AB1484690476D1CEDB298F800004446A7
:108770008542BDD3BDE8F087C822002010B5002196
:10878000024801F043FC80F3100010BD343100209A
:108790000E4910B50A784C780023A24212D0521C20
:1087A000D2B20A70022A00D10B70084A0B780C3240
:1087B00052F8232002608868104420F07F408860CF
:1087C000012010BD0360002010BD0000E822002041
:1087D00013460A460021FFF785BE10B50378002234
:1087E000072B06D2DFE803F005040610202930002D
:1087F0000A7010BD01230B7003898B818388CB81A4
:10880000C06888600A7410BD02220A7002898A81D9
:108810008288CA81C2688A60807D062802D00020D2
:10882000087410BD0120FBE703220A70C2888A8108
:108830000289CA81C068886010BD04230B70C0889B
:108840008881CA818A6010BD0520087010BD0000B3
:1088500070B5064D0646002455F8241009B130467F
:108860008847641C042CF7D370BD0000982A0020B0
:1088700030B50446006887B00D46806800281FD0D8
:1088800018216846FDF70BFE0195A0680590207938
:1088900010B1012810D107E001208DF800002069F7
:1088A0000290E068039005E002208DF80000E06887
:1088B00000030290606904902068816868468847D8
:1088C00007B030BD70B586B015460C00064619D00D
:1088D000112C17D0082C15D014216846FDF7DFFDA8
:1088E000ADF80260304600F0E5FDADF804000D2C57
:1088F0000AD0862C1CD007208DF800000294684610
:1089000000F04CF806B070BD03208DF8000025B1D2
:108910002878C00701D0012000E002208DF808006F
:1089200000208DF80C0041F20110ADF80A00E6E7D6
:1089300006208DF80000E2E710B50446408800F0FC
:10894000B9FDA080024801682046BDE810400847F4
:10895000642200202DE9F04107460024064E074D11
:1089600005E000BF56F8241038468847641CE878B4
:108970008442F7DBBDE8F0817028002084220020CB
:1089800010B50446408800F095FDA08002480168BB
:108990002046BDE810400847A4DE020001490968EE
:1089A00008470000F8DE020038B504460E4800789B
:1089B000A8B1A4F57F40FF380FD0684603F046FF0A
:1089C00078B10521017001210171C480684603F06E
:1089D0004BFF03F0FBFF002038BD042038BD022010
:1089E00038BD082038BD00003023002038B5040011
:1089F00014D0694604F08EF8A0B1BDF8000000EB79
:108A00008001094800EB8100C16849B1A17A39B100
:108A1000C168491EC1600020A07238BD052038BD64
:108A2000062038BD0A2038BD342B00201FB501A90F
:108A3000684604F02BF804B010BD07B513460A468B
:108A40006946002004F022F80EBD07B513460A4619
:108A50000021684604F01AF80EBD20B119B1006873
:108A6000086000207047052070470000F8B50D46EB
:108A7000040018D0BDB1694604F04CF8A8B1BDF8A7
:108A800000000B4900EB800001EB800001210C305D
:108A9000666801F0A5FA2E6060680C3068600120FD
:108AA000A0720020F8BD0520F8BD0A20F8BD000026
:108AB000342B002018B10323002205F043B8052011
:108AC00070470223002205F03DB812B1022305F0E1
:108AD00039B805207047000038B5044609480D46EE
:108AE000007858B164B16946284605F025F9002898
:108AF00003D1BDF800102180658038BD022038BD4B
:108B0000052038BD3023002010B504460E480078FB
:108B100098B1A4B12188022913D80C4A01EB810035
:108B200002EB800260885289C31C934209D805F089
:108B3000F7F800202080608010BD022010BD0520C5
:108B400010BD042010BD000030230020342B002075
:108B500070B50D460446B0F89810D0F89400012284
:108B6000FEF765FB00B1057004F13C0204F19401CD
:108B700004F1540072DF70BD70B513460022064642
:108B80001546862902D0112902D002E0012200E018
:108B900001250D4C73B1A179FEF7A6FD2A46617936
:108BA0003046FEF7A1FD0022A1783046FEF79CFD7D
:108BB000002203E0A178FEF797FD2A46617830464F
:108BC000BDE87040FEF790BD9C220020F7B5174627
:108BD0000E0011D00098002560B10024214668469F
:108BE00001F0E3F918B1A0B23946B0476D1C641C1E
:108BF000142CF3D32846FEBD0020FEBD406803F0D0
:108C000045BE00000EB516A19DF8080020F00F002B
:108C1000401C20F0F00010308DF808000F2202A850
:108C20007CDF08B1FEF7FEF840F2C33078DF08B110
:108C3000FEF7F8F80020009001905021ADF80400F4
:108C4000ADF800104FF4C870A021ADF80600ADF8E3
:108C5000021068467ADF002801D0FEF7E3F80EBD67
:108C60004E6F726469635F54656D706C617465000A
:108C700070B508B1012070BD194C0025207B08B1EA
:108C8000257301E000F0A0F82078082826D2DFE85C
:108C900000F02504080C10251420BDE8704000F0F9
:108CA00021B8BDE8704000F07DB8BDE8704000F02C
:108CB0005FB8BDE8704000F03BB86088084900EB41
:108CC0008000283901EB80004068BDE8704003F067
:108CD00045B86560BDE8704003F04EB80F2070BD28
:108CE0005C2B00201149F0B48A1C00200346A1F13E
:108CF00028050C18A67A4EB1A37200EB800405EB90
:108D00008404E66816B9247C012C0AD0401C80B289
:108D10000228EED30B704B804B60F0BC41F61D5027
:108D200070471080F0BC00F03DB800005C2B0020C4
:108D30000C48418801EB8102A0F1280101EB82017E
:108D4000CA6852B10521017007480221818001687B
:108D500000230122054801F027BC04220270496863
:108D6000F6E700005C2B002038230020CC230020F5
:108D700038B50A49084803240B684268898803EB20
:108D8000810153880470DB1C00201B0400909B0BA6
:108D9000034801F035FD38BD5C2B0020382300204E
:108DA000CC230020074910B54888091D03F002FFB5
:108DB00018B1BDE81040FFF7DBBFBDE81040FFF77A
:108DC000B7BF00005C2B0020F0B51F481F490125EC
:108DD000067802248B88A0F12802082E19D2DFE839
:108DE00006F00418181B222F2F170189491C018136
:108DF0000021418080F80C1001EB810312F8233030
:108E000043B100234418491C89B2A3720229F3D349
:108E10000570F0BD0123F5E742685288D21C1A4460
:108E20008A800470F0BD46880D6806EB860602EB6A
:108E3000860256680E60556013818C80062100E022
:108E400007210170F0BD00005C2B002038230020BA
:108E500030B501888488224D85B0502924D052290C
:108E600002D0542931D103E0204600F019FE2CE055
:108E700014221C496846FDF7F9FAADF80240204675
:108E800000F018FBADF8040000F0FAF80022697950
:108E90002046FEF729FC002229792046FEF724FC13
:108EA0006846FFF749FD10E0017B01290DD1817A69
:108EB00001290AD10089A0F52451023905D10121E7
:108EC000204600F021FE04F0E7FC00220649E87885
:108ED000FEF7CAFB05B0BDE8304004F085B80000DD
:108EE0005C22002020DE0200D96F020010B504468B
:108EF000007800280FD1608800F0D2FD608800F073
:108F00004FF9002807D00449608801220979BDE89B
:108F10001040FEF7E9BB10BD5C2200207CB5044682
:108F2000007808282FD1607A38BB207A4FF6FF7579
:108F300001280DD0072802D0082824D11EE0A088DF
:108F400000F016FAA8421ED0012100F0DDFD1AE063
:108F5000A0886A46012102F095FF70B90198007857
:108F600058B1A08800F004FAA8420CD008490122A8
:108F70000979FEF7B9FB04F037F804E00448002152
:108F8000401C03F0EEFABDE87C4004F085BC000014
:108F90005C22002010B504460A4841782046FEF7BE
:108FA0008BFB68B10848002101EB410200EB820213
:108FB0005288A24201D1C8B210BD491C1429F3D372
:108FC000FF2010BD6E2200206026002070B5094DE4
:108FD000094E002404EB440005EB800071784088C2
:108FE000FEF76AFB20B1641C142CF3D3FF2070BD84
:108FF000E0B270BD602600206E2200202DE9F04115
:109000008046024601200021FDF71DFA1A4F054651
:109010000E467868FDF792FF00280CD1174CD4E972
:10902000062110462A4001EA06031A4305D0A84348
:10903000B143C4E90601BDE8F081404602F0C4FC3A
:1090400030B1D4E9040128433143C4E9040105E007
:10905000D4E90410A943B043C4E90410D4E90601DB
:1090600028433143C4E90601A1687868BDE8F041AE
:109070000022FDF71FBF000004DF0200C82200200D
:109080001CB5054AD2E90212CDE900120022694658
:1090900002F01DFF1CBD000038DE02002DE9FC417E
:1090A000804600F007FA002403250127A0F57F4140
:1090B0002646FF3908D06A46082102F0E3FE18B9B7
:1090C0000198841D8688056832462B462146404615
:1090D000B1DF042804D0082804D00B2808D002E00F
:1090E000112000E00020002F00D10B20BDE8FC8102
:1090F0000027A80701D50125E6E73443F5D0002471
:1091000026460325E0E72DE9FC41804600F0D2F930
:109110000646A0F57F40FF380ED001252A466D1C7B
:109120000027ADB26B460821304602F0D5FE0400A0
:1091300006D0072C25D025E043F20200BDE8FC81D3
:10914000019903230A1D0B604046891DB2DF04000C
:1091500004D00C2C09D0052C09D009E03246082196
:10916000104602F02FFF04460CE0012700E0002427
:109170000821304602F012FF00B10324002FCDD1A8
:1091800000E00C242046D9E704488088A0F57F4100
:10919000FF3901D003F032BF704700006822002081
:1091A0000EB502A9019100F085F96A46012102F08D
:1091B00069FE08B100200EBD019800780EBD0000C8
:1091C0002DE9F04107464FF6FF760A48B3DF10B1AC
:1091D0000320BDE8F081074C43F20305A41E32468C
:1091E00061883846AFDFA842F3D16088401C6080B8
:1091F000F5E700006A220020428800EB82020C3270
:109200008A4201D9022070478188A1F57F42FF3A46
:1092100003D0008808B100207047012070478842C1
:1092200004D20068401C01D0012070470020704724
:109230003EB5027802230C46B3EB520F17D1B0F8BB
:109240000110ADF80010C1788DF802108188ADF8DA
:10925000041080798DF8060002AA01A92046FDF7C6
:1092600023FD032202A96846FDF72BF908B100206F
:109270003EBD01203EBD000010B50C46FFF78AFE42
:10928000FF280CD0074900EB400001EB800041684B
:1092900021600189A180807AA071002010BD052085
:1092A00010BD00006026002070B5018890B0102924
:1092B00059D1011D2C226846FDF7D8F89DF804000D
:1092C0004FF6FF76032134466D46B1EB500F2AD09E
:1092D00002F0F8FE9DF8040040080ED001280CD0E2
:1092E000022820D118E00D99281D1131FDF786FCC8
:1092F00018B100BFBDF82C4015E00CAA0BA907203F
:1093000002F0B4FE0028EED10DE00D99281D491C95
:10931000FFF78EFF0028EDD10CAA0BA9072002F061
:10932000A5FE0028F1D1BDF80000291D00F0B8FD10
:10933000B44218D0BDF80000214600F0A5F8BDF8F1
:109340000000ADF82E000020ADF83040074E8DF83B
:109350002C000BAD044600BF56F824102846884761
:10936000641C022CF8D310B070BD00004CDE02006B
:10937000094A002101EB410332F82330834205D131
:1093800001EB410002EB800040887047491C142922
:10939000F0D34FF6FF707047602600203EB50C46B4
:1093A000054602F08FFE0BE0BDF80000A04207D09A
:1093B0002846029900F00EF810B1BDF800003EBD3D
:1093C00001AA6946072002F051FE0028ECD14FF6B1
:1093D000FF703EBD2DE9F0410C46054600F1110736
:1093E00001F111061022491C401CFDF76AF848B92A
:1093F000681C00F0E4F928B1601C00F0E0F908B145
:10940000012400E0002431463846FDF7F7FB3B78A5
:109410000222B2EB530F0CD00321B1EB530F08D053
:109420003378B2EB530F04D0B1EB530F01D00121CD
:1094300000E00021084201D18C4302D00120BDE8A8
:10944000F0810020FBE7018811B9421892780AB137
:1094500001207047491C0829F7D30020704710B538
:109460000C460346FFF7EFFF00280AD01888218832
:10947000884205D10822A11C981CFDF722F808B1EA
:10948000002010BD012010BD02F0A8BF70B5044639
:10949000FFF76EFF0546204602F0F7FC4FF6FF711E
:1094A00004468D4203D014B9284602F097FF2046A7
:1094B00070BD000010B5FFF76DFDFF2805D0044911
:1094C00000EB400031F8200010BD4FF6FF7010BDDA
:1094D000602600203EB5044602F0F4FD0EE001993E
:1094E00020464631FFF7BBFF28B9019920462A31B3
:1094F000FFF7B5FF10B1BDF808003EBD6A4602A9EE
:10950000072002F0B3FD0028E9D14FF6FF703EBD01
:109510002DE9F0412D4F002518B17D600120BDE8F7
:10952000F0810879012258B1294E01280CD0274C2E
:109530004FF002080834022821D0032842D128E045
:109540000A7102F019FC3BE05FF0000000EB8001C3
:1095500016F82110022908D0401C80B20228F5D349
:109560003A707D6041F61D50D9E700EB800006F8A7
:10957000205006EB8000406802F0F0FB20E00D7107
:10958000A4F80480002301221248216801F00CF89D
:1095900016E00D71206802F0E1FB0D4923682831C7
:1095A000498801EB810206EB8201D1F804C0C4F8BE
:1095B00000C04B60A3880B81A4F8048006F82250F9
:1095C0000028ACD07D600E20A9E7000030230020E9
:1095D000342B0020CC2300200146034802888A4215
:1095E00000D0002070470000B82500202DE9FC5F66
:1095F0000E008346DDE90C47C6F10000984692460E
:10960000814600D40846012503E000BF90FBFAF034
:109610006D1C5045FADAA84500D9454624B1002E04
:1096200001DB780700D5641EB80702D5B8F1000F3A
:109630000AD0F80708D13CB1A54205D220215846EE
:10964000641EFEF793FDF6E7002E02DA4E462D214A
:1096500002E0780703D52B215846FEF787FD07F077
:10966000030002280BD1B8F1000F08D13CB1A5428C
:1096700005D230215846641EFEF778FDF6E7CDE9A5
:109680000047434652463146584604F0ABF8BDE821
:10969000FC9F024600201268930702D0530702D4B1
:1096A0007047500714D502F00300012802D00228A9
:1096B0000CD105E0C2F383100B68801C184404E051
:1096C0000223086803EB925210440860012070479F
:1096D000086800EB9253C2F38910401CEEE770B5A6
:1096E0000C464FF488760546314601F0E2FD50B154
:1096F0003146284601F0E2FD6079400703D5216834
:1097000009B1012088474FF48A763146284601F096
:10971000D0FD50B13146284601F0D0FD60790007F8
:1097200003D5216809B1022088474FF48E7631466F
:10973000284601F0BEFD50B13146284601F0BEFD7D
:109740006079C00603D4216809B1002088474FF42E
:1097500082763146284601F0ACFD00280CD0314617
:10976000284601F0ABFD012020712168002903D0BB
:10977000BDE870400320084770BDF0B58488A51887
:10978000944200D82246A41AC288D6189A4200D819
:109790001346D21A4B880788BB420CD340888342B9
:1097A00009D88888A04206D3A84204D8C888904225
:1097B00001D3B04201D90020F0BD0120F0BD00214D
:1097C000425C0AB101207047491C1029F8D30020DF
:1097D0007047800701D000207047012070470000CB
:1097E0000A4810B5807860B1002401E0022C06D050
:1097F0002046FEF7F1F9641C042CF7D310BD0324B6
:10980000F6E7BDE81040FEF70BBA00003C2200204E
:1098100003480179C90702D00078FEF783BB70477F
:109820003C220020172101804180002101714171FB
:109830001B218171C17170472DE9FE4F2B4D984658
:1098400091460F00824601D000260DE0684600F0E8
:1098500053FB6A460021504602F0A9FA2878009E80
:1098600010B99DF8090098B14A463146504603F0B8
:1098700057FD0446014600225046FFF77DF90D2CA6
:1098800032D008DC84B3082C2ED00B2C0BD12BE06B
:109890000520BDE8FE8F112C10D0862C1AD0A4F51F
:1098A0004050023820D00325B8F1000F04D03246D2
:1098B00021465046FFF706F82846EAE73A46297956
:1098C0005046FDF711FF4A46E9785046FDF70CFF78
:1098D0000025E9E73A4629795046FDF705FF4A4653
:1098E000E9785046FDF700FF2546DDE79C22002081
:1098F0002DE9F041204F0E46154604463978FDF714
:10990000DBFE002835D0204602F048FA50B320464E
:10991000FFF7D0FD80462046B978FDF7CDFE08B1AF
:10992000012700E00227204602F084FC0028404680
:1099300002D0FFF7ABFD0DE0A8F57F41FF3909D05C
:10994000072102F02BFB010004D0052902D020469C
:1099500003F00EFB2B46324639462046BDE8F04167
:10996000FEF7C0BD2A4631462046BDE8F041FEF76D
:109970002FBFBDE8F08100009422002070B5094D92
:109980000646E978FDF798FE044629793046FDF74A
:1099900093FE014622463046BDE870400123FFF7A2
:1099A0004BBF00009C2200202DE9F047394E0027D4
:1099B00080463D46DFF8E090D6F804A057E003D09B
:1099C0000446D0F81C8035E099F8002002EB4201F3
:1099D000521CD2B289F8002009EBC10199F802307B
:1099E000091D9A4201D189F8005048680A78044656
:1099F000012A12D0022A02D0032A3BD108E003F048
:109A00005DFE00B10127257434E00574C06900E0F3
:109A100070680028F9D170602CE0207C50BB886809
:109A20006060C868A0600869E0604869A061F0787B
:109A300000B165606268B168184B501A20F07F4031
:109A4000984202D2A168084406E0881AA16820F072
:109A50007F40814202D9081A206000E025606560DD
:109A60000120A56020742046E56103F009FEB8F1ED
:109A70000000A4D199F8001099F801008142A3D107
:109A800017B97168514502D00120BDE8F087002068
:109A9000FBE70000E822002074290020FFFF7F0080
:109AA00030B585B00546002414216846FCF7F7FC64
:109AB000A5F57F40ADF80250FF3815D02846FFF7D6
:109AC000EDFA98B10B2815D0112811D0A0F540510E
:109AD000023903D00146284603F036FA09482246E7
:109AE000C1782846FDF700FE05B030BD0E2002E02B
:109AF0000124F3E70F208DF800006846FEF71CFFF5
:109B0000ECE700005C2200200A4602498978FDF754
:109B1000EBBD00005C220020F8B5054600780C463D
:109B2000002620420FD100208DF800006846FDF786
:109B300015FA2878204202D12043287001269DF88A
:109B40000000FDF72FFA3046F8BD00002DE9FF4177
:109B50000026234800F041FA2148001F074600F084
:109B60003CFA204C60680090A56800E000986946C7
:109B7000284004EB80000C30FFF78BFD0028F5D166
:109B800001AA009901EA050304EB8303491CDB6881
:109B900042F82030401C00910228F2D3019800F0D6
:109BA000030001280BD0022810D10198032101EBFA
:109BB00090500099BDF80A6001EB900005E0019813
:109BC000BDF80A60C0F3831008440090384600F0E6
:109BD00001FA08B10098606004B03046BDE8F08139
:109BE00030310020182D0020ACB04FF4004100208F
:109BF00001F042FA08B1FDF715F901F059F8FDF747
:109C00002FF908B1FDF70EF937490320FEF740F9A7
:109C100008B1FDF707F969460020FEF725F808B1FD
:109C2000FDF700F901F060FB08B1FDF7FBF801F06A
:109C30000DFD08B1FDF7F6F80024694601200094F7
:109C400001F092FB08B1FDF7EDF8684601F010FC59
:109C500008B1FDF7E7F8FEF7D5FF0021234800F033
:109C60004AFA08B1FDF7DEF8AC216846FCF717FCAC
:109C700002208DF800001E480590ADF810404FF40A
:109C80009670229044F25060012523908DF87C500C
:109C900018482990154869461430FDF7F7FA08B1BD
:109CA000FDF7C0F8114801211430FDF7ECFAFCF77C
:109CB000EDFF0E48A022CC300178428050228280F5
:109CC00021F01801C480457041F004010170084979
:109CD00014318ADF08B1FDF7A5F800F0F7FF00287E
:109CE000FBD101F015FBF8E7317D020024240020B0
:109CF00014220020A9BB020070B5144682880E46CB
:109D000005462088111D0144921C994201D8FE2A63
:109D100001D90C2070BD521C32542088FF21401CF8
:109D200080B2208031542088401C80B2208081196C
:109D3000288803F051FD2188084480B22080AA8839
:109D400042B1A96841B13044FCF790FB2088A98852
:109D500008442080002070BD072070BD2DE9F04729
:109D6000C7880446181D16468946B0FBF7F1B0FBBC
:109D7000F7F207FB12009A193A44D21CB2FBF7F231
:109D8000DDF820A001E02468491E0029FBD13D1A1E
:109D90008846B54216D818E0BAF1000F05D0211850
:109DA00009EB08002A46091D04E0204409EB0801DC
:109DB0002A46001DFCF75AFB00202468761BA844A5
:109DC000B74201D9354600E03D46002EE4D1BDE85A
:109DD000F087000030B5024659B101F079F9002151
:109DE000074C09E004EB810315685B88AB4202D1A4
:109DF0001160002030BD491C8142F3D3052030BDE5
:109E0000E0230020F8B50F460178144605460129E5
:109E100001D1687830B12088821C9A422DD801295E
:109E200002D006E00720F8BD69780144891C9942F8
:109E300023D8181A801E86B2ADF800602188B81C9D
:109E4000084469467DDF0028EDD12878022805D135
:109E5000BDF80010B14201D809210AE0082101280B
:109E600005D16878B04202D8ADF8000001E0ADF845
:109E70000060BDF80000FE2801D90C20F8BD228842
:109E8000401CB8542088401C80B22080395420885F
:109E9000401C2080BDF80010084420800020F8BD40
:109EA00070B505460C004FF0FF0020D04FF6FF764E
:109EB000B5421CD00E48012241782846FDF714FC1B
:109EC0002846FFF767F8FF2803D1FFF77FF8FF2840
:109ED0000DD0084B00EB400203EB82014D8023F8CC
:109EE000226022684A60A2880A81A2798A7270BDC3
:109EF0006E22002060260020034A00219268C0E9FB
:109F000000218160704700009C22002070B54FF650
:109F1000FF750E46A84201D1002000E0401C84B22B
:109F200008E02146304602F010FB08B1204670BD23
:109F3000641CA4B2FF2CF4D9284670BD70B50C4641
:109F40000546FCF767F9002802D0218828680844F4
:109F500070BD10B50A8849888A4203D1FCF79CF984
:109F6000012010BD002010BD70B50C460546FCF761
:109F700076F9002802D061882868084470BD10B5C1
:109F80000A8849888A4203D1FCF760F9012010BD94
:109F9000002010BD01F01F0301229A40D24349095D
:109FA00000EB8100114600F021B84A0950F8220068
:109FB00001F01F0201219140084000D001207047AC
:109FC00001F01F0301229A40490900EB810011466C
:109FD00000F021B8002100F014B8012100F01BB8F6
:109FE00008B56A46FCF7ADF9009808BD08B56A46A1
:109FF000FCF78DF9009808BD08B56A46FCF7A1F991
:10A0000008BD08B56A46FCF782F908BD08B56A467E
:10A01000FCF764F908BD08B56A46FCF76BF90098CF
:10A0200008BD08B56A46FCF799F9009808BD38B52F
:10A03000044600258DF800506846FCF78FFF216824
:10A040006268086890420ED9401E08600178A38AB1
:10A05000E26801FB0325227A2168101AC0B20A794E
:10A06000824200D208719DF80000FCF79BFF284651
:10A0700038BD38B5054600208DF800000C4668460E
:10A08000FCF76CFFE868A98A201AB0FBF1F12A6896
:10A090001068431C136001709DF80000FCF782FFFC
:10A0A00038BD10B530B1017A42680368891AC9B267
:10A0B0001A6006E00E2010BD03681A68541C1C606C
:10A0C0001170491EC9B2F7D200680021017108461B
:10A0D00010BDC20800F007030120895C98400840C9
:10A0E000704710B5C20800F00703885C01249C404B
:10A0F0002043885410BD10B560B10161172120F8CC
:10A10000021B20F8021B1B2100F8021BFFF78AFB31
:10A11000002010BD0E2010BDF0B5858893B00C4610
:10A12000002D39D1018800263E4F24293BD006DC82
:10A13000102909D011290CD0232958D14FE03A29F0
:10A140000BD0552953D129E00146204601F056FD98
:10A150004DE0A01DFFF766FB49E02246408934F838
:10A16000061F814200D808466080172800D21720B9
:10A170006080106970B1607960B1D7E90001CDE904
:10A180000301ADF80E506088ADF81000136903A903
:10A19000104698476671267113B0F0BD01462046FF
:10A1A00001F07CFD23E0011D2C2206A8FCF75EF9DE
:10A1B000BDF81800BDF81C2004EBC0014A732269E9
:10A1C000AAB1D7E90423CDE90423ADF81200487BF6
:10A1D0008DF814002269204604A9904707E0017A0F
:10A1E000207B884200D201462846FEF79DF9A07ADE
:10A1F0000028D1D0E1882846A5DF012570B11128BB
:10A20000CAD001F0E5FA0246074808A1008813B059
:10A2100005EB0040BDE8F04000F0C0BEA672E5725C
:10A22000BAE7000054DE0200E023002073645F629E
:10A230006C655F67617474635F65786368616E679E
:10A24000655F6D74755F726571756573742829201B
:10A2500072657475726E65642025732E00000000AF
:10A260007FB5054600294DD0002D4BD008780C460F
:10A27000DE2847D1A8886188884202D1204603F0B1
:10A2800027FB2888012825D002283BD011283AD066
:10A29000512837D135F8040F6188884232D1A97826
:10A2A000A81C02292ED1017A042903D0062901D045
:10A2B000052927D10021009102228DF8002001916B
:10A2C0004FF4C07202910391ADF80420007A052882
:10A2D0000FD010E0297A2046012913D1A98842889D
:10A2E00091420FD10121017204B0BDE8704003F02A
:10A2F000EFBAADF8041028886946B0DF002801D015
:10A30000616888477FBDA88861888842FAD14FF686
:10A31000FF7060807FBD00F180400068002800D0A1
:10A320000120704708B500F18040002101600068FD
:10A33000009008BD70B50B4C207808B185250FE062
:10A340000020A06060602061E060074801F060FAD2
:10A35000054601F0C7F908B901F044FA0120207060
:10A36000284670BDBC2800207D82020038B500253B
:10A370008DF800506846FCF7F1FD074CE068401E80
:10A38000E060E06810B901F053FAA5709DF8000094
:10A39000FCF708FE38BD0000BC2800200FB408B54B
:10A3A0000399002904D004AA00926A4600F00FF82D
:10A3B00001B05DF814FB10B582680446002A05D090
:10A3C000D4E90403216898470020A06010BD2DE95E
:10A3D000FC4791460C00804676D014F8011B39B139
:10A3E00025290ED04046FDF7C1FE20780028F4D183
:10A3F00098F80C00002867D04046BDE8FC47FFF7FE
:10A40000DABF0020012221782B291BD02D2902D070
:10A41000302908D102E040F0010001E040F00200E4
:10A42000641C002AEFD100252A290ED02178A1F141
:10A4300030020A2A11D205EB850201EB4205641CA9
:10A44000303DF1E740F00400EAE7D9F800100B1DB9
:10A45000C9F800300968641C0D44217800232E29B6
:10A460000BD114F8011FA1F130020A2A05D203EB27
:10A47000830201EB4203303BF3E76C290DD06829DE
:10A480000BD0692921D00BDC252918D0582931D0CF
:10A4900063290ED0642915D117E014F8011FECE7E9
:10A4A000702969D0732932D075291BD0782909D138
:10A4B00020E0D9F80000011DC9F8001001784046DD
:10A4C000FDF754FE641C90E76CE0D9F800100A1DFB
:10A4D000C9F800200968CDE900500A224046FFF77C
:10A4E00085F8EFE7D9F800100A1DC9F800200968BF
:10A4F0000A2206E0D9F800100A1DC9F800200968F0
:10A500001022CDE90050404603F06CF9DAE7D9F8A3
:10A51000001000270A1DC9F800200E68C00705D1E9
:10A5200012E04046761C7F1CFDF720FE31780029A2
:10A53000F7D104E0202140466D1EFDF717FEBD4215
:10A54000C0D9002DF6D1BDE74EB13046FBF7B2FFC2
:10A55000074604E0202140466D1EFDF707FEBD4280
:10A5600006D9002DF6D103E04046761CFDF7FEFD2E
:10A5700031780029F8D1A5E7D9F80000011DC9F804
:10A580000010056830214046FDF7F0FD7821404677
:10A59000FDF7ECFD08200021CDE900010346102263
:10A5A0002946B0E7BDE8FC872DE9F84F2B4E0400A3
:10A5B0009A4630884FF001031546894603EB004068
:10A5C00024D0216800292BD0002D32D06268494662
:10A5D0004FF010071268A2F1010C1CEA090F11D10B
:10A5E00098466A432046FCF722FB00282AD02068C0
:10A5F00053462A46066901B049462046B446BDE89E
:10A60000F04F6047164B17A2009721E00E210091F2
:10A61000134B1EA21FA100F0D0FC0E20BDE8F88F46
:10A62000082100910E4B26A21AA100F0C6FC0820BA
:10A63000F4E7092100910A4B24A216A100F0BDFC09
:10A640000920EBE700973188054B214A08EB0140D0
:10A6500010A100F0B2FC1020E0E70000042400206C
:10A660008BDF0200616464725F69735F70616765AC
:10A670005F616C69676E656428705F66732C20701B
:10A680006167655F6164647229000000705F6673D2
:10A6900000000000257320636865636B20666169B4
:10A6A0006C656420696E2025732829207769746899
:10A6B0002076616C756520307825782E00000000CA
:10A6C000705F66732D3E705F617069006C656E002F
:10A6D000F8E202002DE9F04128B1016819B1C96919
:10A6E000BDE8F04108470D4D0D480024461B1427D6
:10A6F0000DE000BF04EB840005EB8000016829B188
:10A70000C969884710B10120BDE8F081641CB6FB1F
:10A71000F7F0A042EED80020F6E70000CC2300209E
:10A72000E0230020044801214174007A08B1002090
:10A730007047012070470000F82B0020012801D04D
:10A74000032808D10449002201284A7400D00020BF
:10A75000087402F0EBB87047F82B002070B5024681
:10A76000022801D0032A45D1234C207A002841D069
:10A77000012833D0022831D120480023022A006862
:10A7800002D0032A2AD11BE0E360017911B101292B
:10A7900024D10DE0D0E90565711B4FF48056B1421C
:10A7A00000D33146294481614569A9420ED015E0A4
:10A7B0000169491C0161426991420FD1237213E082
:10A7C000E168491CE160082908D9E3602372022A84
:10A7D0000AD00D21FEF74CF802F04EF8607C28B14B
:10A7E000BDE8704000F084BF0021F3E7BDE8704091
:10A7F00002F09CB870BD0000F82B0020542300200C
:10A800002DE9F84F3A4D04008B4628884FF0010699
:10A81000DDF828A0984691464FF00E0106EB004067
:10A820001AD0B9F1000F1BD02168002920D00921CE
:10A83000B8F1000F25D062685368B8FBF3F703FB4B
:10A840001782002A21D02B4B2BA2009135A100F0BA
:10A85000B4FB0920BDE8F88F264B3DA2009102E031
:10A86000244B3DA200912FA100F0A7FB0E20F1E7A1
:10A87000082100911F4B3AA22AA100F09EFB08205C
:10A88000E8E71C4B39A20091E0E75846FCF7C9F90C
:10A89000102798B14846FCF7C4F9B0B14246594672
:10A8A0002046FCF7C4F9B8B1CDF800A020684346B3
:10A8B0004A46C56859462046A847CBE700972888EE
:10A8C0000C4B06EB00402AA20CE000972888094BAD
:10A8D00006EB00402CA205E000972888054B06EB0C
:10A8E000004032A20FA100F068FB1020B2E7000088
:10A8F0000424002078DF020021286C656E202520CA
:10A90000705F66732D3E705F666C6173685F696E21
:10A91000666F2D3E70726F6772616D5F756E6974E0
:10A9200029000000257320636865636B20666169F8
:10A930006C656420696E2025732829207769746806
:10A940002076616C756520307825782E0000000037
:10A95000705F667300000000705F73726300000038
:10A96000705F66732D3E705F617069006C656E008C
:10A97000616464725F69735F616C69676E6564339B
:10A980003228646573742900616464725F69735F5F
:10A99000616C69676E65643332282875696E74333B
:10A9A000325F7429705F737263290000616464729E
:10A9B0005F69735F77697468696E5F626F756E64F3
:10A9C0007328705F66732C20646573742C206C652B
:10A9D0006E2900002DE9FF411C46DDE90A78154685
:10A9E0000E46684600F040F846EA450141EA840117
:10A9F00041EA072242EA0841009A00EB8200C0F8CF
:10AA00000017BDE8FF812DE9FF411C46DDE90A780A
:10AA100015460E46684600F035F846EA450141EA1B
:10AA2000840141EA072242EA0841009A00EB8200D1
:10AA3000C0F80017BDE8FF8113B50C46684600F06A
:10AA400021F8009900EB8101D1F8002722F440326F
:10AA5000C1F80027009900EB8100D0F8001741EA07
:10AA60000441C0F800171CBD0168202902D24FF034
:10AA7000A040704701F01F010160014870470000CD
:10AA8000000300500168202902D24FF0A040704717
:10AA900001F01F01016001487047000000030050F1
:10AAA0000168202902D24FF0A040704701F01F0139
:10AAB00001600148704700000003005001B568467E
:10AAC000FFF7E0FFD0F810050099C84000F0010042
:10AAD00008BD38B501240090684631B1FFF7C4FFC6
:10AAE00000998C40C0F8084538BDFFF7BDFF0099BC
:10AAF0008C40C0F80C4538BD1CB5094C0144D4E964
:10AB00000034CDE900346C4606E000BF54F8203034
:10AB1000D3F81035401C08C28142F7D81CBD000094
:10AB2000FCDE0200034908B508440021016000680A
:10AB3000009008BD0060004002494058012800D044
:10AB4000002070470060004030B5124B01460020E5
:10AB5000D3F81044224609E0157A854205D1401CFD
:10AB60000A28F7DB4FF0FF3030BD5268002AF3D1DE
:10AB7000421CF9D00872D3F810242AB152684A60F6
:10AB8000D3F81024516030BD0022C3F810144A607D
:10AB900030BD0000182D00207047FBF759BE7047EC
:10ABA00008B5034A00924023024A00F005F808BDA8
:10ABB00099CF0200182C0020F0B595B01C46154620
:10ABC0000F4608461A9E00F053FB182109A8FBF710
:10ABD00066FC0E96CDE909540023082203A93846E5
:10ABE00000F05BFB05980690BDF81000ADF81C0066
:10ABF000BDF81200ADF81E0000208DF8210003986A
:10AC0000082600F00300012802D0022818D032E004
:10AC100003983346850AC0F3C2008DF820000398DC
:10AC20000FA9C0F38314A200384600F036FB09A830
:10AC3000009006AB22460FA9284600F075FA1AE0EC
:10AC40000398840DC0F3C2008DF82000082C01D2B7
:10AC5000254600E0082533462A460FA9384600F06D
:10AC60001CFB2E44641B09AB06AA29460FA800F062
:10AC7000ADF9002CEAD1384600F000FB15B0F0BD6C
:10AC80000A4A012902EBC00007D0022907D0032994
:10AC900007D0042907D00020704702207047042005
:10ACA000704700797047407970470000F8E902006A
:10ACB00010B5FFF772FF04210348FFF745FF024973
:10ACC0000120487210BD0000682300202DE9F04FDC
:10ACD0008DB0FDF75BFA18B100200DB0BDE8F08F24
:10ACE0007A4C4FF0000BC4F818B4BFF34F8F606874
:10ACF0000290A568D846284004EB800008E021684F
:10AD00000298814201D86160E6E7284004EB8000A8
:10AD10000C3002A9FEF7BDFC0028F0D105AA02996B
:10AD200001EA050304EB8303491CDB6842F8203089
:10AD3000401C02910228F2D3059800F0030002287B
:10AD400002D001284ED0A9E005985022810D8946F5
:10AD5000B2EB905F00D850210E4666F39F500590ED
:10AD600008315B4800F03BFA070079D000F080FA28
:10AD70004346082205A9384600F095FA029908F1E1
:10AD8000080A2940681A8000001D864223D94F4DC9
:10AD90000C3530B1C2B204EB8101301A90460C314F
:10ADA00004E02946F2B2002590462846C6B2534632
:10ADB000384600F078FA0AEB08032DB132462946EE
:10ADC0004FEA070000F06FFA029909F1030001EB66
:10ADD000900002903BE004EB810153463246384636
:10ADE0000C31EFE70598C0F38310062800D3062046
:10ADF000059960F38911C1F38310801C05918100CE
:10AE0000334800F0ECF9070048D000F031FA43462F
:10AE1000082205A9384600F046FA08F1080800267D
:10AE20000FE00298434600EA0501401C04EB810153
:10AE30000290042238460C3100F035FA08F104087B
:10AE4000761C0598C0F38310B042EAD847B1D4F815
:10AE50001054D4F8180468B1384600F00FFA2FE007
:10AE60001CE0687A012804D12A682846394612680D
:10AE700090476D68002DF4D1384600F0FFF98DF849
:10AE800000B06846FCF76AF8D4F8180408B90298CC
:10AE900060609DF80000FCF785F811E0D4F81044DC
:10AEA00004E021682046896888476468002CF8D14E
:10AEB00008480221008801EB004007A100F06AF871
:10AEC000FDF764F980F0010007E70000182D00206D
:10AED00080EA0200142400204261636B656E647393
:10AEE00020666C7573686564000000002DE9F84FFA
:10AEF0008146DFF89C80D01C15468A4680080022D7
:10AF00006946D8F80860FDF7E9F8B8B3009CA01CC2
:10AF10000090D8F808103040091A8F003F1DBD423C
:10AF200008EB800002D82A46514608E03A465146CE
:10AF30000C30FBF79BFA1648EA1B0AEB07010C30B2
:10AF4000FBF794FA4FEA1947FDF718FC47EA00426D
:10AF5000601C304008EB8000344008EB8401C26084
:10AF6000C8684FF6C07269F3C500904365F39F50FF
:10AF700020F00300801C20F00400C86098F8200432
:10AF800002E000BFFFF7A2FE0028FBD1BDE8F88F6A
:10AF9000182D002000231A4602F0ECBA08B5012350
:10AFA00000926A4602F0E6FA08BD1CB5CDE900231E
:10AFB00002236A4602F0DEFA1CBD3EB5069C8DE80F
:10AFC0001C0003236A4602F0D5FA3EBD2DE9F04786
:10AFD0000E4680461C46924608293ED894F80C90AE
:10AFE000002020731946104601F0E4FB0025B5420D
:10AFF00006D218F805201AA12046FFF7CFF903E082
:10B0000019A12046FFF7CAF96D1C082DEFD317A12F
:10B010002046FFF7C3F90025B54210D218F8057095
:10B02000FBF720FA0068C05D10F03E0F01D03A46F1
:10B0300000E02E220EA12046FFF7B0F903E00DA19B
:10B040002046FFF7ABF96D1C082DE5D30122214600
:10B05000504601F091FB84F80C90BDE8F0870000A9
:10B060002025303278000000202020007C000000E5
:10B070002563000020000000104810B5FF2181600A
:10B08000002101604160C0F81814C0F8141480F861
:10B0900020140B4800F0F0F800280DD109480A49A7
:10B0A0000A4B401AC108002003E000BF23F820002B
:10B0B000401C8842FAD3002010BD0000182D00204B
:10B0C00080EA020080EA0200F8E90200E0230020A2
:10B0D00002480349401AC0087047000080EA020095
:10B0E000F8E9020013B56846FEF774FE08B10020C7
:10B0F0001CBD0248009950F831001CBDF8E902005F
:10B1000070B508480125D0F8104480F8205405E0B7
:10B11000657221682046496888476468002CF7D129
:10B1200070BD0000182D00202DE9FF4781460C9DC1
:10B1300000200C462F7B2873984616462946184651
:10B1400001F038FB072E42D2DFE806F004090F16A3
:10B150001F2A360049462846FFF720F937E04946BE
:10B1600028462268FFF71AF931E0D4E9002349465E
:10B170002846FFF713F92AE0A0680090D4E90023DD
:10B1800049462846FFF70AF921E0D4E90201CDE952
:10B190000001D4E9002349462846FFF7FFF816E0EE
:10B1A00004F1080007C88DE80700D4E900234946E8
:10B1B0002846FFF7F3F80AE004F108000FC88DE80D
:10B1C0000F00D4E9002349462846FFF7E7F800229C
:10B1D0002946404601F0D0FA2F73BDE8FF872DE9DC
:10B1E000F041858A80462D1F4819C01CB0FBF5F040
:10B1F000C6B24046FEF71BFF041E19D00020207186
:10B2000001206071E58000272546761EC4F8008085
:10B210000BE04046FEF70BFF60B16179491C61719C
:10B22000286005467F1CC0F80080B742F1D3204655
:10B23000BDE8F081204600F002F80020F8E72DE993
:10B24000F041457901466B1E002201E00968521C5D
:10B250009A42FBD30F680146002605E038460C6889
:10B26000FEF707FF2146761CAE42F7D3BDE8F0811A
:10B270000121001DFEF7B4BEFEF713BF10B5044652
:10B280000121001DFEF7CDFE10F0FF0F04D1204676
:10B29000BDE81040FFF7D3BF10BD38B501240094BE
:10B2A000FEF75CFD38BD38B500240094FEF756FD6E
:10B2B00038BD4058002800D00120704708B5002252
:10B2C00042504058009008BD00EB41101368C0F890
:10B2D00020359188C0F824159168C0F82815D168E8
:10B2E000C0F82C1570470000064910B500204870C2
:10B2F000091D0860BFF35F8F0349044800F024FA7A
:10B30000002010BD5C230020C8DF02000C2C0020B0
:10B3100008B500208DF800006846FBF71FFEF1EE2F
:10B32000100A20F09F00E1EE100ABFF35F8F08497A
:10B330004020C1F880029DF80000FBF733FE00F0CA
:10B34000D1F908B141DF08BD20BF40BF20BF08BD13
:10B3500004E000E020B10349096801600020704763
:10B360000E207047A0E10200FEB502460E460846D8
:10B37000FFF7F0FF00286ED100240094019401250E
:10B3800006208DF80020ADF8040002948DF80250DC
:10B3900069462020326869DF2F4F48B100F018FA63
:10B3A0003988024605EB01432C491846FFF7F6FDA4
:10B3B00000948DF801508DF80240019402948DF8AC
:10B3C000034069464020326869DF40B100F000FA6E
:10B3D00002463888224905EB0040FFF7DFFD009464
:10B3E000019402948DF8004069460120326869DFBB
:10B3F00048B100F0EDF93988024605EB01431949DF
:10B400001846FFF7CBFD4FF4B06000900194029412
:10B410006946A120326869DF48B100F0D9F939885E
:10B42000024605EB014310491846FFF7B7FD0094AB
:10B43000019402948DF800506946A020326869DFBB
:10B4400040B100F0C5F902463888084905EB0040D4
:10B45000FFF7A4FD0020FEBD1C24002090E80200A0
:10B46000D8E80200F0E702003CE802009CE7020096
:10B470002DE9F0410446D0F8008060DF2168194DC5
:10B48000074641451CD92888022606EB004016A134
:10B49000FFF780FD2888424606EB00401EA1236886
:10B4A000FFF783FDF006D0F80C012168800200F15F
:10B4B0000050421A288825A106EB0040FFF76EFDD8
:10B4C000012467B1384600F083F9024628882AA192
:10B4D00004EB0040FFF762FD3846BDE8F0812E48DE
:10B4E0000470F9E71C240020496E73756666696371
:10B4F00069656E742052414D20616C6C6F6361749C
:10B50000656420666F722074686520536F667444AA
:10B5100065766963652E00004368616E6765207417
:10B5200068652052414D207374617274206C6F63A2
:10B530006174696F6E2066726F6D20307825782097
:10B54000746F20307825782E000000004D617869F6
:10B550006D756D2052414D2073697A6520666F725A
:10B56000206170706C69636174696F6E206973200B
:10B57000307825782E00000073645F626C655F652B
:10B580006E61626C6528292072657475726E6564DF
:10B590002025732E00000000C723002030B514487A
:10B5A00091B00078002820D05FF03405ADF840500D
:10B5B00010A903A861DF30B1052816D011B0BDE88D
:10B5C0003040FBF72FBC03AC0A49684600F0BCF8DA
:10B5D00007E000BFD0E9002120469047684600F010
:10B5E000CAF802980028E1D0F4E711B030BD00009D
:10B5F000C7230020A4E10200F8B5134C2078C0B1A5
:10B600000120A07001F080FB112814D0022001F06D
:10B6100093FB00258DF800506846FBF79FFC11DF77
:10B62000064625709DF80000FBF7BCFC2EB13046A5
:10B63000F8BD0820F8BD0020F8BDA57001F02CFF72
:10B64000032001F079FBF6E7C42300207CB5194CF8
:10B65000207808B108207CBD0120A070002001F0F6
:10B6600053FB112819D0002001F066FB1248002678
:10B67000006801908DF800606846FBF76FFC0F4989
:10B6800001A810DF05000AD0002020709DF80000FE
:10B69000FBF788FC2DB128467CBD00207CBD012035
:10B6A000F3E7A670667001F013FF012001F044FB80
:10B6B000F3E70000C423002038E10200A96D020076
:10B6C0000EB50749684600F03FF805E0D0E90010E4
:10B6D0008847684600F04FF802980028F6D10EBD62
:10B6E00054E102000148007870470000C4230020A4
:10B6F0000548817819B1007818B1FFF77DBF08209F
:10B700007047FFF7A3BF0000C42300201FB56846A1
:10B710004BDF30B1052814D004B0BDE81040FBF772
:10B7200081BB084901A800F00FF806E0D0E900212C
:10B730000098904701A800F01EF803980028E6D072
:10B74000F4E71FBDC0E10200016009684160AFF38A
:10B75000008010B5D0E900215368994201D1002141
:10B7600004E0D1E90034A34202D01946816010BD43
:10B7700008314160F0E7816800290BD002689268C7
:10B780000A44826041684B689A4203D108314160A3
:10B79000FFF7DFBF704700000C4A10B502F5947345
:10B7A0000EE0991AC91001EBD171491002EBC101E9
:10B7B0000C68844201D90B4602E005D201F108026F
:10B7C0009A42EED3002010BD486810BDE8DF0200A9
:10B7D00000B5FFF7E1FF002800D1014800BD0000DF
:10B7E000D4DF020008480068012110F0010F08D1E1
:10B7F0004FF0E020E02280F80024C0F88012C0F86A
:10B80000001102480160704700E100E018050040A7
:10B810000649024600200B790BB1852070470A606B
:10B8200001220A7100224A7170470000B4220020F0
:10B8300004490120086004480168C1F3004100295F
:10B84000FAD170470C00004018040040002802D0D4
:10B85000014980010847704711DF02002DE9F041DE
:10B860000E46804600F0D4FD204D0028404616D0FC
:10B87000FCF7CCFC284490F858008009032802D03B
:10B8800001280AD003E04046FFF718F928B1032148
:10B890004046BDE8F041FFF7CFB80221F8E700F0DD
:10B8A000C3FD002820D04046FCF7B0FC0446104FF2
:10B8B0004FF4807007EB840100EB8400D1F8102571
:10B8C00080B242F00102C1F81025FFF72BF9002EDB
:10B8D0000AD04046FCF79AFC55F82000002803D017
:10B8E0000120A040C7F80403BDE8F081D028002063
:10B8F000006000402DE9FC41DFF8C080044608EB01
:10B900000400002790F930001346C0170E46401C73
:10B9100001D008274FE0B0781946C0F34002204616
:10B92000FCF750FC0546401C44D0B07841071CD4BD
:10B93000C0070DD068460094FFF7A4F8009900EB0B
:10B940008100D0F8001721F00201C0F8001707E0CD
:10B9500000217378204600910A460191FFF753F8C1
:10B96000164920466431FEF7BCFBB078800718D535
:10B970001348317800EB8500D0F81025114B1A40A0
:10B98000C0F810254FF47C524FF4403302EA0422F1
:10B9900003EA01410A43D0F810150A43C0F8102504
:10B9A00009E008EB0500327810F8581F41EA8211CF
:10B9B000017000E004273846BDE8FC81D028002053
:10B9C00000600040FFC0FCFF10B5FFF777F80028CB
:10B9D00000D0012010BD000070B5194D95F86A0027
:10B9E00008B1082070BD0020411E2A18401CC0B2BA
:10B9F00082F830103028F8D300242046FCF7D4FB1E
:10BA0000641CE4B20C2CF8D30D490024E0204C66F1
:10BA1000A1F868400B4981F8000401264020891FE5
:10BA2000C1F88002C1F800014FF4BE70FFF77AF848
:10BA30000549F007C1F8040385F86A60204670BD27
:10BA4000D028002006E000E000600040034890F8A5
:10BA50006A00002800D0012070470000D028002094
:10BA60002DE9F0410D4604460079324901EBC0074B
:10BA7000387910B10820BDE8F081294620463A60A7
:10BA8000FCF760FC20680126C0F8006520686B792F
:10BA9000AA792989C0F80C35C0F80425C0F8081522
:10BAA000A87AE97A226840EA0120C2F810052068E5
:10BAB0000021C0F800122068C0F800134FF48E7106
:10BAC0002068FFF7FBFB4FF488712068FFF7F6FB57
:10BAD0004FF48A712068FFF7F1FB4FF48271206800
